:020000040000FA
:100000000802002081020000890200008B0200002B
:100010008D0200008F02000091020000000000002D
:10002000000000000000000000000000930200003B
:1000300095020000000000009702000099020000F5
:100040009B0200009D0200009F020000A102000030
:10005000A302000013060000A7020000A90200008E
:10006000AB020000AD020000AF020000B1020000D0
:10007000B3020000B5020000B7020000B9020000A0
:10008000BB020000BD020000BF020000C102000070
:10009000C3020000C5020000C7020000C902000040
:1000A000CB020000CD020000CF020000D102000010
:1000B000D3020000D5020000D7020000D9020000E0
:1000C000DB020000DD020000DF020000E1020000B0
:1000D000E3020000E5020000E7020000E902000080
:1000E000EB020000ED02000000000000EF02000043
:1000F000F1020000F3020000F5020000F702000028
:10010000F9020000FB020000FD020000FF020000F7
:1001100000000000000000000103000003030000D5
:100120000503000007030000090300000B030000A3
:100130000D0300000F030000110300001303000073
:1001400000000000000000000000000000000000AF
:100150001503000017030000190300001B03000033
:10016000000000000000000000000000000000008F
:10017000000000000000000000000000000000007F
:10018000000000000000000000000000000000006F
:10019000000000000000000000000000000000005F
:1001A000000000000000000000000000000000004F
:1001B0001D0300001F0300002103000023030000B3
:1001C0002503000027030000290300002B03000083
:1001D0002D0300002F030000310300003303000053
:1001E0003503000037030000390300000000000061
:1001F000000000003B0300003D0300003F0300003F
:100200004103000043030000000000000000000064
:100210004503000047030000490300004B030000B2
:100220004D0300004F030000510300005303000082
:100230005503000057030000590300005B03000052
:100240005D0300005F030000610300006303000022
:100250006503000067030000690300006B030000F2
:100260006D0300006F03000071030000DFF80CD085
:1002700000F02EFC00480047250400000802002082
:100280003C4880473C480047FEE7FEE7FEE7FEE7C4
:10029000FEE7FEE7FEE7FEE7FEE7FEE7FEE7FEE736
:1002A000FEE7FEE7FEE7FEE7FEE7FEE7FEE7FEE726
:1002B000FEE7FEE7FEE7FEE7FEE7FEE7FEE7FEE716
:1002C000FEE7FEE7FEE7FEE7FEE7FEE7FEE7FEE706
:1002D000FEE7FEE7FEE7FEE7FEE7FEE7FEE7FEE7F6
:1002E000FEE7FEE7FEE7FEE7FEE7FEE7FEE7FEE7E6
:1002F000FEE7FEE7FEE7FEE7FEE7FEE7FEE7FEE7D6
:10030000FEE7FEE7FEE7FEE7FEE7FEE7FEE7FEE7C5
:10031000FEE7FEE7FEE7FEE7FEE7FEE7FEE7FEE7B5
:10032000FEE7FEE7FEE7FEE7FEE7FEE7FEE7FEE7A5
:10033000FEE7FEE7FEE7FEE7FEE7FEE7FEE7FEE795
:10034000FEE7FEE7FEE7FEE7FEE7FEE7FEE7FEE785
:10035000FEE7FEE7FEE7FEE7FEE7FEE7FEE7FEE775
:10036000FEE7FEE7FEE7FEE7FEE7FEE7FEE7FEE765
:10037000FEE700007D0300006D02000010B54FF0A5
:100380008070406CC16D434888474FF08071896F21
:10039000086A80474FF08071896F0868804700F0D5
:1003A000CDF83DA000F036FC10BD10B54FF08070C8
:1003B000406C81693E4888474FF08070006A0E218A
:1003C000C26B3C4890474FF08070006A0E22114685
:1003D00003683848984710BD10B54FF08070006A28
:1003E00000220E21036833489847322000F07AF843
:1003F00031480078801CC0B22F49087002464FF087
:100400008070006A0E2103682A48984740F2B6308F
:1004100000F068F828480078102802D10220264908
:10042000087010BD2DED028B9FED240A10EE104ACE
:10043000FFF7BBFF2CE0FFF7CFFF204600F03AF9B3
:1004400041EC100BB0EE408AF0EE608A53EC182BB2
:100450001BA000F0DFFB4FF08071496C086E8047F5
:1004600000EE100AB8EE400ADFED170A80EE201AFF
:1004700011EE105A284600F01DF941EC100BB0EEB9
:10048000408AF0EE608A53EC182B10A000F0C2FBFB
:10049000D1E70000400500C153797374656D2049B0
:1004A0006E6974204F4B212E2E2E0D0A0000000085
:1004B000050800F00050024000000020C3F548404D
:1004C00025372E34660D0A00002474494E6F7720BC
:1004D00074686520434C4B2069733A2566204D486B
:1004E0005A0D0A0070B504464FF08071496C086ED1
:1004F000804740F6B831B0FBF1F000FB04F54FF057
:100500008070406CD0F888102846884770BD70B560
:1005100004464FF08071496C086E80470649B0FB75
:10052000F1F000FB04F54FF08070406CD0F88810BB
:100530002846884770BD0000C0C62D0070B54FF03A
:100540008070406C8169454888474FF08070406CEE
:100550008169434888474FF08070006A816E0120AE
:1005600088474FF08070006A816E40F201408847F2
:100570004FF08070006A0321426D4FF04020904799
:100580004FF0807040690021C26F364890474FF0AD
:1005900080704069416E334888474FF08071496CE4
:1005A000086E804705464FF08070406960234FF425
:1005B000E132294644692B48A0474FF08070806C97
:1005C0000168152088474FF0807040695021426CC7
:1005D000244890474FF080704069C169214888479E
:1005E00021A000F017FB70BD70B504460D4600BF9A
:1005F0004FF080704069816E1A4888470128F7D013
:10060000E1B24FF08070406902681648904720467A
:1006100070BD70B500244FF0807040690121C26C3C
:100620001048904705464FF0807040692946026D9A
:100630000C4890474FF080704069816B09488847AB
:10064000C4B24FF08070006AFF2204210368114891
:100650009847214610A000F0DDFA70BD000800F0B8
:10066000001800F000C000400D0A554152543020DF
:10067000496E6974204F4B212C546869732069734B
:1006800020544D3443313233474836504D2E2E2EB0
:100690000D0A0000005002400D0A5541525430200E
:1006A00052786420612063686172203A25630D0AE4
:1006B0000000000000F0004230F000400AD0C10D00
:1006C00001F56071C0F3160042EA0151C20840070B
:1006D0001143704700200146704730B50B46014674
:1006E00000202022012409E021FA02F59D4205D3D1
:1006F00003FA02F5491B04FA02F52844151EA2F17B
:100700000102F1DC30BD2DE9F05F05460020924684
:100710009B4688460646814640241BE028464146C3
:100720004746224600F0F5F953465A46C01A914111
:1007300010D311461846224600F0DCF92D1A67EB5B
:1007400001084F4622460120002100F0D3F917EBA3
:1007500000094E41201EA4F10104DFDC4846314669
:100760002A464346BDE8F09F2DE9FE4F804681EAC8
:100770000300C00F0C46009021F0004123F000451B
:10078000B8EB0200A94105D24046214690461C46DE
:100790000B46024623F00040104304D14046214658
:1007A00003B0BDE8F08F270DC7F30A00C3F30A5169
:1007B0000290401A0190402866DAC3F3130040F417
:1007C000801B0098924620B10023D2EB030A63EB12
:1007D0000B0B01985946C0F14002504600F08AF9CF
:1007E00006460D4650465946019A00F0A2F910EB14
:1007F00008006141002487EA115284EAE7731A4332
:100800003BD0009A3AB3019A012A4FEA075210DC12
:10081000001B61EB02014FF0004202EA0752CDE9F2
:100820000042001C41F5801132462B4600F0A0F931
:10083000B6E7001B61EB0201001C41F580130018B4
:100840005B412018A2F5001747EB030140EAD57081
:10085000B6196D4111E06D084FEA360645EAC075DC
:100860004FEA0752001B61EB0201001C41F58011A9
:1008700049084FEA30000019514132462B4603B077
:10088000BDE8F04F00F067B9009801224000002356
:10089000D0EB020263EBE073009821464FEAE0746C
:1008A000B8EB000061EB0401E9E783F000435BE78C
:1008B00081F0004158E72DE9FE4F81EA030404F07E
:1008C000004421F0004100944FF0000B23F000435E
:1008D00050EA010402D052EA030404D10020014688
:1008E00003B0BDE8F08FC3F30A54C1F30A552C449A
:1008F000A4F2F3340194A0FB0254C1F3130141F4B8
:100900008011C3F3130343F4801301FB024400FB83
:10091000034E840A970A44EA815447EA8357A4FBAA
:10092000076802958D0A05FB07854FEA932C04FBA7
:100930000C542705029D4FEA065847EA1637B5EBD7
:1009400008056EEB070C870E920E47EA811742EA04
:100950008312A7FB0201B6EB0B0164EB00042B0D25
:1009600043EA0C335E1844EB1C50DA465146E7FB71
:100970000201C5F313044FEA0B3343EA14534FEA61
:100980000432019C43EA0603A4F10C040294009C87
:10099000CDE900B400F0ECF8A2E72DE9F04D81EAD2
:1009A000030404F0004B21F0004514464FF0000A08
:1009B00023F0004150EA050220D054EA01021DD084
:1009C000C5F30A570246C5F31303C1F31300C1F37D
:1009D0000A5640F4801543F48013A7EB0608101B59
:1009E000D64608F2FD3873EB050002D308F1010882
:1009F00001E092185B41B8F1000F03DA00200146D4
:100A0000BDE8F08D00204FF48011064684460EE0CC
:100A1000171B73EB050705D3121B63EB0503064396
:100A20004CEA010C49084FEA300092185B4150EA49
:100A30000107EDD152EA030012D082EA040083EAF2
:100A40000501084303D100224FF0004308E0101BCA
:100A5000AB4102D20122002302E06FF001025310E9
:100A60001AEB06004CEB085110EB0A0041EB0B01AE
:100A7000BDE8F04D00F06FB8C1F30A52C1F31301A5
:100A800040F2FF3341F480119A4202DA002001461D
:100A9000704740F233439A42A2F2334202DC5242A0
:100AA00000F037B800F026B830B5002904DB4FF06D
:100AB0000044404264EB0101002B04DB4FF0004492
:100AC000524264EB0303994208BF904230BD0000DC
:100AD000064C074D06E0E06840F0010394E807008B
:100AE00098471034AC42F6D3FFF7C4FBF81400006B
:100AF00018150000202A04DB203A00FA02F1002039
:100B000070479140C2F1200320FA03F3194390404B
:100B10007047202A04DB203A21FA02F000217047B6
:100B200021FA02F3D040C2F1200291400843194655
:100B30007047202A06DBCB17203A41FA02F043EA3D
:100B4000E07306E041FA02F3D040C2F12002914086
:100B500008431946704710B5002B08DA401C41F1D4
:100B6000000192185B411A4301D120F0010010BD31
:100B70002DE9F04D92469B4611B1B1FA81F202E0A7
:100B8000B0FA80F220329046FFF7B4FF04460F46D9
:100B900040EA0A0041EA0B0153465A46084303D192
:100BA00020463946BDE8F08D114653EA010015D0C4
:100BB000C8F140025046FFF7ACFF05460E465046CE
:100BC00059464246FFF796FF084301D0012000E056
:100BD0000020054346EAE0762C4337430A984FEA63
:100BE0004453A0EB08004FEAD4240A304FF000022F
:100BF00044EA47544FEAD72502D500200146D1E701
:100C0000010510196941DDE9084500196941BDE890
:100C1000F04DA0E70FB4054B10B503A9044A0298A4
:100C200000F0C6F810BC5DF814FB0000E9050000F8
:100C30000400002002E008C8121F08C1002AFAD1EF
:100C400070477047002001E001C1121F002AFBD14C
:100C5000704700002DE9FF5FDDE90220010DDDF89E
:100C600038B0024310D10F9801244CA2012808D0BB
:100C7000002100980F9BC0E90021C0E90243BDE8B4
:100C8000FF9F6FEA0B01F4E7A1F2FF3144F6105029
:100C900041430D140F9801280ED0A5EB0B00401C0A
:100CA0004FF000043E4EDFF8FC90B0F1000AA04681
:100CB00005DACAF1000717E0CBF10000F0E70746BC
:100CC00012E0F80707D02246334640464946FFF770
:100CD000F2FD804689462246334610461946FFF704
:100CE000EAFD04460E467F10002FEAD1DDE902013D
:100CF000BAF1000F42464B4602DAFFF7DCFD01E095
:100D0000FFF74BFE04460E460022274BFFF7CCFEB2
:100D100003D84FF0FF30014607E00022234B204666
:100D20003146FFF721FDFFF7A7FE102409E0002C54
:100D30000ADB0A220023FFF7E6FC019B30321A553A
:100D4000641E50EA0102F2D1641C019AC4F111033D
:100D500014440F9A012A09D00122084301D15B45AE
:100D60000FDD4FF0000205F101050DE0084303D14E
:100D7000A3EB0B056D1E09E000204FF0110B0F9047
:100D800088E701DA00226D1E002A83D000980F99AF
:100D9000C0E90231C0E9004571E700003000000001
:100DA000000024400000F03F0000F0430000E03F5E
:100DB0002DE9FF4F95B09B4689460646002512E275
:100DC000252878D10024761CF94A2746012105946C
:100DD0003378203B01FA03F0104202D00443761C22
:100DE000F6E730782A2811D06FF02F033078A0F181
:100DF0003002092A16D8059A44F0020402EB820256
:100E000003EB42021044761C0590EFE759F8042BDF
:100E10000592002A03DA504244F40054059044F04D
:100E20000204761C30782E2816D116F8010F44F0F3
:100E300004042A280DD06FF02F023078A0F130037F
:100E4000092B09D807EB870302EB4303C718761C6D
:100E5000F3E759F8047B761C30786C280FD006DC59
:100E60004C2817D068280DD06A2814D104E07428C3
:100E700010D07A280FD10DE044F400140AE044F4B5
:100E8000801401E044F440147278824202D1761C4E
:100E900004F58014761C307866280BD013DC5828B3
:100EA00077D009DC002875D04528F6D04628F4D044
:100EB00047281AD19FE118E0632835D0642879D0FB
:100EC000652812D197E1702873D008DC6728F1D02B
:100ED00069286FD06E280DD06F2806D1B5E0732831
:100EE0002CD0752875D0782874D05A461799904719
:100EF0006D1C76E1C4F30250022809D003280DD0FE
:100F0000D9F8001004280DD00D6009F1040968E13A
:100F1000D9F80010EA17C1E90052F6E7D9F8001035
:100F20000D80F2E70D70F0E719F8041B8DF8001042
:100F300000208DF80100EA46012003E059F804ABD7
:100F40004FF0FF3061074FF0000102D40DE008F1CF
:100F500001018846B9420FDA8045F8DB1AF808101B
:100F60000029F4D108E008F1010188468142FADB4A
:100F70001AF808100029F6D105985B46A0EB08077F
:100F800021463846179A00F09EFA284400EB0805DF
:100F900007E04DE02BE10DE01AF8010B5A461799D6
:100FA0009047B8F10108F7D25B4621463846179AB8
:100FB00014E142E00A220092C4F302524FF0000A08
:100FC000022A08D059F804CB032A4FEAEC710AD060
:100FD0000DE029E02AE009F1070121F00702F2E81B
:100FE00002C1914609E00FFA8CFC4FEAEC71042A29
:100FF00003D14FFA8CFC4FEAEC71002907DA0A465C
:101000000021DCF1000C61EB02012D2202E022053F
:1010100004D52B228DF80420012203E0E20701D041
:101020002022F7E7904653E00A2102E010220DE06B
:1010300010214FF0000A00910BE010224FF0000A3F
:1010400044F004040827009203E008224FF0000A4D
:101050000092C4F30252022A05D059F804CB0021B1
:10106000032A08D009E009F1070121F00702F2E89C
:1010700002C1914605E01FFA8CFC042A01D10CF054
:10108000FF0C4FF00008220722D5702827D0009BC4
:1010900083F0100353EA0A0309D15CEA010206D087
:1010A00030228DF804208DF8050002229046009B26
:1010B00083F0080353EA0A030AD15CEA010201D172
:1010C000620705D530228DF804204FF001087F1EFD
:1010D000582809D037A003900EA8029013E04022B0
:1010E0008DF804200122E1E737A0F4E7534660467B
:1010F000009AFFF708FB84460398825C0298A0F1EF
:101100000100029002705CEA0100EFD1029806A98A
:10111000A1EB000000F1200A600702D524F480341E
:1011200000E00127574502DDA7EB0A0000E00020A0
:1011300000EB0A01009005984144A0EB01000590E6
:10114000E00306D45B462146179A059800F0BBF9E8
:101150000544002706E001A85A46C05D179990474C
:101160006D1C7F1C4745F6DBE0030CD55B46214632
:10117000179A059800F0A7F9054404E030205A4674
:10118000179990476D1C0099481E00900029F5DCC6
:1011900008E0029802995A460078491C0291179972
:1011A00090476D1CBAF10001AAF1010AF1DC6BE174
:1011B000092801003031323334353637383961622D
:1011C00063646566000000003031323334353637F1
:1011D00038394142434445460000000000F060F9C0
:1011E000054406F10106307800287FF4E9AD19B016
:1011F0002846BDE8F08F620700D4062709F10702F0
:1012000022F0070CFCE80223E14603F000485FEA05
:10121000080C02D00FF27C2C0DE05FEA045C02D5D2
:101220000FF2742C07E05FEAC47C02D00FF26C2C42
:1012300001E0AFF2700C4FF0FF3823F00043CDF81F
:1012400050C065280CD006DC452809D046281DD0A2
:1012500047283ED13EE0662818D0672839D139E0CA
:101260000021112F01DB112000E0781CCDE90001E5
:1012700006A90EA8FFF7EEFCDDE90F010E9A039117
:101280000021009207F1010A04914EE04FF0004066
:101290000097CDE9011006A90EA8FFF7DBFCDDE9F8
:1012A0000F0203920E9B11990022DDF80CA000930F
:1012B000049219B907F1010100EB010AB7EB0A002A
:1012C00004D4C0F1FF3007F1010A0490AAEB070033
:1012D000019046E0012F00DA01270021112F01DDE6
:1012E000112000E03846CDE9000106A90EA8FFF75D
:1012F000B1FCDDE90F010E9A0391002104910092E7
:10130000BA4621070CD40399514500DA8A46BAF14E
:10131000010F05DD009AAAF10101515C302908D0C6
:10132000B84202DA10F1040F06DA0121CDE901100A
:1013300017E0AAF10101E9E7002805DC049901445E
:101340000491AAEB000102E0411C514500DD8A46F0
:101350000499A0EB010000F1010001904FF0004062
:101360000290200704D40198504501DBCDF8048099
:1013700000208DF84F0002980DF14F07B0F1004F9B
:1013800025D02B200E9002984FF0020800280CDA8E
:10139000404202902D200E9007E00A210298FFF7AC
:1013A0009CF93031029007F8011DB8F10001A8F155
:1013B0000108F2DC02980028EFD1791E0E9808701F
:1013C000307800F0200040F0450007F8020D12A828
:1013D000A0EB070000F107081498007800B1012085
:1013E00000EB0A01019801EBE07105984144A0EB84
:1013F0000100A0F101000590E00306D45B46214600
:10140000179A059800F05FF805441498007820B109
:101410005A461799904705F10105E00323D55B462D
:101420002146179A059800F04EF805441BE00498F1
:10143000002807DBDDE90301884203DD0098405CFA
:10144000179901E0179930205A46904704986D1C6F
:10145000401C04900198401E019004D12E205A4651
:10146000179990476D1CBAF10001AAF1010ADEDC60
:1014700005E017F8010B5A46179990476D1CB8F113
:101480000001A8F10108F4DC5B462146179A059893
:10149000A4E600002D0000002B000000200000004A
:1014A0002DE9F041044600251E461746880405D460
:1014B00006E039462020B04705F10105641EF8D545
:1014C0002846BDE8F0812DE9F041044600251E467E
:1014D0009046C80301D5302700E02027880405D5B1
:1014E00006E041463846B04705F10105641EF8D5CF
:1014F0002846BDE8F081000018150000000000201B
:1015000008000000340C0000201500000800002036
:1015100000020000440C0000020000000000000077
:040000050000026D88
:00000001FF
